:020000040000fa
:080000000002040000000000f2
:020000040000fa
:04000800c80200002a
:020000040000fa
:04000c00c802000026
:020000040000fa
:04001000c802000022
:020000040000fa
:04001400c80200001e
:020000040000fa
:04001800c80200001a
:020000040000fa
:04001c00c802000016
:020000040000fa
:04002000c802000012
:020000040000fa
:04002400c80200000e
:020000040000fa
:04002800c80200000a
:020000040000fa
:04002c00c802000006
:020000040000fa
:04003000c802000002
:020000040000fa
:04003400c8020000fe
:020000040000fa
:04003800c8020000fa
:020000040000fa
:04003c00c8020000f6
:020000040000fa
:04004000c8020000f2
:020000040000fa
:04004400c8020000ee
:020000040000fa
:04004800c8020000ea
:020000040000fa
:04004c00c8020000e6
:020000040000fa
:04005000c8020000e2
:020000040000fa
:04005400c8020000de
:020000040000fa
:04005800c8020000da
:020000040000fa
:04005c00c8020000d6
:020000040000fa
:04006000c8020000d2
:020000040000fa
:04006400c8020000ce
:020000040000fa
:04006800c8020000ca
:020000040000fa
:04006c00c8020000c6
:020000040000fa
:04007000c8020000c2
:020000040000fa
:04007400c8020000be
:020000040000fa
:04007800c8020000ba
:020000040000fa
:04007c00c8020000b6
:020000040000fa
:04008000c8020000b2
:020000040000fa
:04008400c8020000ae
:020000040000fa
:04008800c8020000aa
:020000040000fa
:04008c00c8020000a6
:020000040000fa
:04009000c8020000a2
:020000040000fa
:04009400c80200009e
:020000040000fa
:04009800c80200009a
:020000040000fa
:04009c00c802000096
:020000040000fa
:0400a000c802000092
:020000040000fa
:0400a400c80200008e
:020000040000fa
:0400a800c80200008a
:020000040000fa
:0400ac00c802000086
:020000040000fa
:0400b000c802000082
:020000040000fa
:0400b400c80200007e
:020000040000fa
:0400b800c80200007a
:020000040000fa
:0400bc00c802000076
:020000040000fa
:0400c000c802000072
:020000040000fa
:0400c400c80200006e
:020000040000fa
:0400c800c80200006a
:020000040000fa
:0400cc00c802000066
:020000040000fa
:0400d000c802000062
:020000040000fa
:0400d400c80200005e
:020000040000fa
:0400d800c80200005a
:020000040000fa
:0400dc00c802000056
:020000040000fa
:0400e000c802000052
:020000040000fa
:0400e400c80200004e
:020000040000fa
:0400e800c80200004a
:020000040000fa
:0400ec00c802000046
:020000040000fa
:0400f000c802000042
:020000040000fa
:0400f400c80200003e
:020000040000fa
:0400f800c80200003a
:020000040000fa
:0400fc00c802000036
:020000040000fa
:04010000c802000031
:020000040000fa
:04010400c80200002d
:020000040000fa
:04010800c802000029
:020000040000fa
:04010c00c802000025
:020000040000fa
:04011000c802000021
:020000040000fa
:04011400c80200001d
:020000040000fa
:04011800c802000019
:020000040000fa
:04011c00c802000015
:020000040000fa
:04012000c802000011
:020000040000fa
:04012400c80200000d
:020000040000fa
:04012800c802000009
:020000040000fa
:04012c00c802000005
:020000040000fa
:04013000c802000001
:020000040000fa
:04013400c8020000fd
:020000040000fa
:04020800c802000028
:020000040000fa
:04020c00c802000024
:020000040000fa
:04021000c802000020
:020000040000fa
:04021400c80200001c
:020000040000fa
:04021800c802000018
:020000040000fa
:04021c00c802000014
:020000040000fa
:04022000c802000010
:020000040000fa
:04022400c80200000c
:020000040000fa
:04022800c802000008
:020000040000fa
:04022c00c802000004
:020000040000fa
:04023000c802000000
:020000040000fa
:04023400c8020000fc
:020000040000fa
:04023800c8020000f8
:020000040000fa
:04023c00c8020000f4
:020000040000fa
:04024000c8020000f0
:020000040000fa
:04024400c8020000ec
:020000040000fa
:04024800c8020000e8
:020000040000fa
:04024c00c8020000e4
:020000040000fa
:04025000c8020000e0
:020000040000fa
:04025400c8020000dc
:020000040000fa
:04025800c8020000d8
:020000040000fa
:04025c00c8020000d4
:020000040000fa
:04026000c8020000d0
:020000040000fa
:04026400c8020000cc
:020000040000fa
:04026800c8020000c8
:020000040000fa
:04026c00c8020000c4
:020000040000fa
:04027000c8020000c0
:020000040000fa
:04027400c8020000bc
:020000040000fa
:04027800c8020000b8
:020000040000fa
:04027c00c8020000b4
:020000040000fa
:04028000c8020000b0
:020000040000fa
:04028400c8020000ac
:020000040000fa
:04028800c8020000a8
:020000040000fa
:04028c00c8020000a4
:020000040000fa
:04029000c8020000a0
:020000040000fa
:04029400c80200009c
:020000040000fa
:04029800c802000098
:020000040000fa
:04029c00c802000094
:020000040000fa
:0402a000c802000090
:020000040000fa
:0402a400c80200008c
:020000040000fa
:0402a800c802000088
:020000040000fa
:0402ac00c802000084
:020000040000fa
:0402b000c802000080
:020000040000fa
:0402b400c80200007c
:020000040000fa
:0402b800c802000078
:020000040000fa
:0402bc00c802000074
:020000040000fa
:0402c000c802000070
:020000040000fa
:0402c400c80200006c
:020000040000fa
:0402c800c802000068
:020000040000fa
:0402cc00c802000064
:020000040000fa
:0402d000c802000060
:020000040000fa
:0402d400c80200005c
:020000040000fa
:0402d800c802000058
:020000040000fa
:0402dc00c802000054
:020000040000fa
:0402e000c802000050
:020000040000fa
:0402e400c80200004c
:020000040000fa
:0402e800c802000048
:020000040000fa
:0402ec00c802000044
:020000040000fa
:0402f000c802000040
:020000040000fa
:0402f400c80200003c
:020000040000fa
:0402f800c802000038
:020000040000fa
:0402fc00c802000034
:020000040000fa
:04030000c80200002f
:020000040000fa
:04030400c80200002b
:020000040000fa
:04030800c802000027
:020000040000fa
:04030c00c802000023
:020000040000fa
:04031000c80200001f
:020000040000fa
:04031400c80200001b
:020000040000fa
:04031800c802000017
:020000040000fa
:04031c00c802000013
:020000040000fa
:04032000c80200000f
:020000040000fa
:04032400c80200000b
:020000040000fa
:04032800c802000007
:020000040000fa
:04032c00c802000003
:020000040000fa
:04033000c8020000ff
:020000040000fa
:04033400c8020000fb
:020000040000fa
:100400002f8020000e7f22000e01880000000000d7
:10041000000020000000e000020032000001200087
:1004200020028800140007005b0007000000e000c5
:1004300003003a00e06120000100200002003700c4
:100440000000200001002000810f70000100320038
:1004500014000700000020000000e000020032004d
:100460000000020000000000540402000000000030
:100470000040da000000fe004440a9000000200017
:100480000000e0000300320000002000a00188000e
:100490004440a800000006008a1f78008b1f7800e7
:1004a0000000060091018800800478000000eb0045
:1004b0001a003700e284440032a0b4009905ba0063
:1004c000e284440032a0b4009906ba00e2844400f9
:1004d00032a0b4000006eb00476fde00fd07b2005b
:1004e000636ce10003003a00ebff07000000eb0043
:1004f0000a003700606ce10004003a00005deb0088
:100500008b05e900fdff3e00040037006168e10053
:10051000010032000086eb000b00070019c7ba008b
:100520001905ba000e04e00003003a000a00e000da
:10053000e0ff3a0000000600fe07b2009e018800be
:100540008a047800f5ff3700395dba008b05e900b1
:100550000c003200295dba008b05e900080032006a
:100560000c00e00003003a00e284440032a0b40032
:10057000f5ff370019ddba008b05e900faff3a00f4
:100580008904e800e184440032a0b40000000600c1
:100590000040da000000fe00000005006022b80004
:1005a000060220000000d0008180d2000482d20028
:1005b0008582d2000000a0000202520083825a000d
:1005c000030031000202420083824a000000a100c1
:0c05d0000603e900f3ff3a0000000600fb
:020000040000fa
:1005dc000200fa00000f78001e0078000080d100a5
:1005ec001e0068000080fa00000006000000fa00ff
:1005fc000000eb000f01070050002000fd00070079
:10060c00c022ef0010002000620107004000200013
:10061c00600107000080fa00000006000400fa00e8
:10062c0050002000c90007008000eb00008fbe00c6
:10063c00c00c2000010020001e01be00800f5100e4
:10064c00818f590003003e0000c4290001002000e6
:10065c001d00370090192000010020001e01be0073
:10066c00800f5100818f590003003e000088230049
:10067c00110020001400370060262000010020002b
:10068c001e01be00800f5100818f590003003e00f7
:10069c00004c2d00110020000b00370030332000df
:1006ac00010020001e01be00800f5100818f5900f7
:1006bc0003003e000010270021002000020037003c
:1006cc0000d42000310020000080fa000000060059
:1006dc000000fa0010002000f80007000004e00001
:1006ec001000320000c8bf000000fb008000e800d2
:1006fc0010002800008060000000e00004003d00b5
:10070c000000e900e1ff2f00008070000000e8000d
:10071c000040780000e8b70000482800e101200004
:10072c003501070040002000e40007000004e00051
:10073c000900320000c8bf000080fb000000e90087
:10074c004f00de000040780000e8b70000482800a9
:10075c00e1012000280107000080fa0000000600db
:10076c000800fa00f00f2000000f78001a00370084
:10077c001e00780020168800a8ff070020079800ac
:10078c00310798000000eb00100798000d003700af
:10079c002e009000be009000a2002000030020005c
:1007ac007bff070014010700c9ff070000c8bf004a
:1007bc000004e0000c003a001e0090000000e8006d
:1007cc00100798009e00900030062000808f50008b
:1007dc00efff34001e0fe9001e0078000000e0005f
:1007ec00e3ff3d0001003700000000000080fa002c
:1007fc00000006000800fa00200798003107980056
:10080c000000eb00000f780010002000100798008b
:10081c00710020001e0078000008dd002016880002
:10082c002e009000be009000f30007001e00900008
:10083c00e10f500003003a001e007800e40f500056
:10084c0006003c001e009000e10f400006003a003c
:10085c001e0078000000e00003003c001e00900029
:10086c000000ea00100798001e0090001e0f4000c8
:10087c0097ff070000c8bf00e14f500004003a008a
:10088c0066ff07002007980031079800e0ff37004b
:10089c00000000000080fa00000006000400fa00ce
:1008ac0052ff070001003700000000005bff07004b
:1008bc00008fbe0000c8bf000004e00002003a0038
:1008cc00a7ff0700f9ff370000c8bf00e14f500039
:1008dc00f5ff3a001e00be00c6ff0700f3ff37000d
:1008ec000400fa00100798001e009000e40f50005e
:1008fc0004003200e50f50000400320000c0eb0091
:10090c00100037000000000001003700000000005c
:10091c001e0090000d000700d1cc2c000100b80087
:10092c004308de00004f780040c6b3009e407800bc
:10093c0080cf50000200360040c6b300004f780054
:10094c001e4078000080fa00000006000400fa0047
:10095c00100798001e009000e40f500004003200b5
:10096c00e50f5000040032000080eb001f00370040
:10097c000000000001003700000000009e00900005
:10098c00411988002023a8000000eb00000f78001c
:10099c0002003700000000001e0fe800703e20002f
:1009ac009e007800808f5000faff36002023a900ab
:1009bc000000eb00000f7800020037000000000080
:1009cc001e0fe800703e20009e007800808f5000c3
:1009dc00faff360000000000001980006100600082
:1009ec000000e000fcff3200001880000080fa00dc
:1009fc00000006000200fa00000f78001e007800cc
:100a0c00e40f500005003200e50f500006003a00dc
:100a1c002ca3a90010c0b300040037002c83a9003c
:100a2c0010c0b300010037000040eb000080fa005a
:100a3c00000006000200fa00000f78001e0078008b
:100a4c000000e0001a003a0011198000f0ff2100ac
:100a5c00008060001019880000c0eb0024e3b70090
:100a6c0001198000f0f12f0000806000001988004f
:100a7c0021198000f00f2e000080600000c0a00043
:100a8c002019880001198000f0cf2f000080600031
:100a9c00001988001119800030fc2f0000806000c4
:100aac001019880021e3a80010c0b3000100370022
:100abc000040eb000080fa00000006000200fa0083
:100acc00000f78001e007800e20f50001300320077
:100adc00e20f500003003e00e10f50000600320010
:100aec0029003700e30f500015003200e40f5000ce
:100afc001c00320024003700a116800000042000e6
:100b0c000080600000f0a7000000ea000000e9008f
:100b1c004f00de00004078001c003700a11680005a
:100b2c00000820000080600000f0a7000000ea0030
:100b3c000000e9004f00de00004078001300370091
:100b4c0011168000000820000080600000f0a70053
:100b5c000000ea000000e9004f00de0000407800d1
:100b6c000a003700a11680000000220000806000ff
:100b7c0000f0a7000000ea000000e9004f00de00d2
:100b8c0000407800010037000040eb000080fa00c4
:100b9c00000006000200fa00000f78001e0078002a
:100bac00e20f50000c003200e20f500003003e0038
:100bbc00e10f5000060032000d003700e30f50002b
:100bcc0007003200e40f5000070032000800370025
:100bdc00d2c2a80006003700d2e2a80004003700f9
:100bec00c0e2a80002003700d3a2a8000000000059
:080bfc000080fa000000060071
:020000040000fa
:100c0400f03fb1000180b10006003500ee03090099
:100c140000000000403fb1000180b100fbff3d0037
:100c24001000b000203fb000020035000080090031
:080c34000000000000000600b2
:020000040000fa
:100c3c00000800000200000000000000000000009e
:020000040000fa
:020000040002f8
:04aff8009dfa0000be
:020000040000fa
:020000040002f8
:04affc00ff3f000013
:00000001FF
