:020000040000fa
:080000000002040000000000f2
:020000040000fa
:04000800c80200002a
:020000040000fa
:04000c00c802000026
:020000040000fa
:04001000c802000022
:020000040000fa
:04001400c80200001e
:020000040000fa
:04001800c80200001a
:020000040000fa
:04001c00c802000016
:020000040000fa
:04002000c802000012
:020000040000fa
:04002400c80200000e
:020000040000fa
:04002800c80200000a
:020000040000fa
:04002c00c802000006
:020000040000fa
:04003000c802000002
:020000040000fa
:04003400c8020000fe
:020000040000fa
:04003800c8020000fa
:020000040000fa
:04003c00c8020000f6
:020000040000fa
:04004000c8020000f2
:020000040000fa
:04004400c8020000ee
:020000040000fa
:04004800c8020000ea
:020000040000fa
:04004c00c8020000e6
:020000040000fa
:04005000c8020000e2
:020000040000fa
:04005400c8020000de
:020000040000fa
:04005800c8020000da
:020000040000fa
:04005c00c8020000d6
:020000040000fa
:04006000c8020000d2
:020000040000fa
:04006400c8020000ce
:020000040000fa
:04006800c8020000ca
:020000040000fa
:04006c00c8020000c6
:020000040000fa
:04007000c8020000c2
:020000040000fa
:04007400c8020000be
:020000040000fa
:04007800c8020000ba
:020000040000fa
:04007c00c8020000b6
:020000040000fa
:04008000c8020000b2
:020000040000fa
:04008400c8020000ae
:020000040000fa
:04008800c8020000aa
:020000040000fa
:04008c00c8020000a6
:020000040000fa
:04009000c8020000a2
:020000040000fa
:04009400c80200009e
:020000040000fa
:04009800c80200009a
:020000040000fa
:04009c00c802000096
:020000040000fa
:0400a000c802000092
:020000040000fa
:0400a400c80200008e
:020000040000fa
:0400a800c80200008a
:020000040000fa
:0400ac00c802000086
:020000040000fa
:0400b000c802000082
:020000040000fa
:0400b400c80200007e
:020000040000fa
:0400b800c80200007a
:020000040000fa
:0400bc00c802000076
:020000040000fa
:0400c000c802000072
:020000040000fa
:0400c400c80200006e
:020000040000fa
:0400c800c80200006a
:020000040000fa
:0400cc00c802000066
:020000040000fa
:0400d000c802000062
:020000040000fa
:0400d400c80200005e
:020000040000fa
:0400d800c80200005a
:020000040000fa
:0400dc00c802000056
:020000040000fa
:0400e000c802000052
:020000040000fa
:0400e400c80200004e
:020000040000fa
:0400e800c80200004a
:020000040000fa
:0400ec00c802000046
:020000040000fa
:0400f000c802000042
:020000040000fa
:0400f400c80200003e
:020000040000fa
:0400f800c80200003a
:020000040000fa
:0400fc00c802000036
:020000040000fa
:04010000c802000031
:020000040000fa
:04010400c80200002d
:020000040000fa
:04010800c802000029
:020000040000fa
:04010c00c802000025
:020000040000fa
:04011000c802000021
:020000040000fa
:04011400c80200001d
:020000040000fa
:04011800c802000019
:020000040000fa
:04011c00c802000015
:020000040000fa
:04012000c802000011
:020000040000fa
:04012400c80200000d
:020000040000fa
:04012800c802000009
:020000040000fa
:04012c00c802000005
:020000040000fa
:04013000c802000001
:020000040000fa
:04013400c8020000fd
:020000040000fa
:04020800c802000028
:020000040000fa
:04020c00c802000024
:020000040000fa
:04021000c802000020
:020000040000fa
:04021400c80200001c
:020000040000fa
:04021800c802000018
:020000040000fa
:04021c00c802000014
:020000040000fa
:04022000c802000010
:020000040000fa
:04022400c80200000c
:020000040000fa
:04022800c802000008
:020000040000fa
:04022c00c802000004
:020000040000fa
:04023000c802000000
:020000040000fa
:04023400c8020000fc
:020000040000fa
:04023800c8020000f8
:020000040000fa
:04023c00c8020000f4
:020000040000fa
:04024000c8020000f0
:020000040000fa
:04024400c8020000ec
:020000040000fa
:04024800c8020000e8
:020000040000fa
:04024c00c8020000e4
:020000040000fa
:04025000c8020000e0
:020000040000fa
:04025400c8020000dc
:020000040000fa
:04025800c8020000d8
:020000040000fa
:04025c00c8020000d4
:020000040000fa
:04026000c8020000d0
:020000040000fa
:04026400c8020000cc
:020000040000fa
:04026800c8020000c8
:020000040000fa
:04026c00c8020000c4
:020000040000fa
:04027000c8020000c0
:020000040000fa
:04027400c8020000bc
:020000040000fa
:04027800c8020000b8
:020000040000fa
:04027c00c8020000b4
:020000040000fa
:04028000c8020000b0
:020000040000fa
:04028400c8020000ac
:020000040000fa
:04028800c8020000a8
:020000040000fa
:04028c00c8020000a4
:020000040000fa
:04029000c8020000a0
:020000040000fa
:04029400c80200009c
:020000040000fa
:04029800c802000098
:020000040000fa
:04029c00c802000094
:020000040000fa
:0402a000c802000090
:020000040000fa
:0402a400c80200008c
:020000040000fa
:0402a800c802000088
:020000040000fa
:0402ac00c802000084
:020000040000fa
:0402b000c802000080
:020000040000fa
:0402b400c80200007c
:020000040000fa
:0402b800c802000078
:020000040000fa
:0402bc00c802000074
:020000040000fa
:0402c000c802000070
:020000040000fa
:0402c400c80200006c
:020000040000fa
:0402c800c802000068
:020000040000fa
:0402cc00c802000064
:020000040000fa
:0402d000c802000060
:020000040000fa
:0402d400c80200005c
:020000040000fa
:0402d800c802000058
:020000040000fa
:0402dc00c802000054
:020000040000fa
:0402e000c802000050
:020000040000fa
:0402e400c80200004c
:020000040000fa
:0402e800c802000048
:020000040000fa
:0402ec00c802000044
:020000040000fa
:0402f000c802000040
:020000040000fa
:0402f400c80200003c
:020000040000fa
:0402f800c802000038
:020000040000fa
:0402fc00c802000034
:020000040000fa
:04030000c80200002f
:020000040000fa
:04030400c80200002b
:020000040000fa
:04030800c802000027
:020000040000fa
:04030c00c802000023
:020000040000fa
:04031000c80200001f
:020000040000fa
:04031400c80200001b
:020000040000fa
:04031800c802000017
:020000040000fa
:04031c00c802000013
:020000040000fa
:04032000c80200000f
:020000040000fa
:04032400c80200000b
:020000040000fa
:04032800c802000007
:020000040000fa
:04032c00c802000003
:020000040000fa
:04033000c8020000ff
:020000040000fa
:04033400c8020000fb
:020000040000fa
:100400004f8220000e7f22000e01880000000000b5
:10041000000020000000e000020032000001200087
:1004200020028800140007005b0007000000e000c5
:1004300003003a00a07e21000100200002003700e6
:100440000000200001002000810f70000100320038
:1004500014000700000020000000e000020032004d
:10046000000002000000000068150200000000000b
:100470000040da000000fe004440a900000a20000d
:100480000000e0000300320000002000a00188000e
:100490004440a800000006008a1f78008b1f7800e7
:1004a0000000060091018800800478000000eb0045
:1004b0001a003700e284440032a0b4009905ba0063
:1004c000e284440032a0b4009906ba00e2844400f9
:1004d00032a0b4000006eb00476fde00fd07b2005b
:1004e000636ce10003003a00ebff07000000eb0043
:1004f0000a003700606ce10004003a00005deb0088
:100500008b05e900fdff3e00040037006168e10053
:10051000010032000086eb000b00070019c7ba008b
:100520001905ba000e04e00003003a000a00e000da
:10053000e0ff3a0000000600fe07b2009e018800be
:100540008a047800f5ff3700395dba008b05e900b1
:100550000c003200295dba008b05e900080032006a
:100560000c00e00003003a00e284440032a0b40032
:10057000f5ff370019ddba008b05e900faff3a00f4
:100580008904e800e184440032a0b40000000600c1
:100590000040da000000fe00000005006022b80004
:1005a000060220000000d0008180d2000482d20028
:1005b0008582d2000000a0000202520083825a000d
:1005c000030031000202420083824a000000a100c1
:1005d0000603e900f3ff3a0000000600efff070002
:1005e0000400be00000006000000fa006881570009
:1005f000cfb89700e20107000080fa000000060073
:10060000060007005e0007000f0107003701070022
:100610009000070032020700dd013700ec87470039
:10062000889fbe008a9fbe008c9fbe008e1f7800f0
:100630000006780001047800180790002805900053
:1006400098067800cdb79f00b80590003202be0032
:100650002203be000400be000601be004f18de00eb
:100660006011b8008000eb00d0b79f00e1b79f0099
:10067000f2b79f0083bf9f00800478000900e0006c
:10068000060032006000b8006011b800040250009b
:100690008582580006035900878359000e00e00048
:1006a000020035000d10a100cdb79f000900e00049
:1006b00005003a004fb097000028a30002003a005e
:1006c0000038a300020032008a00e9000100370070
:1006d0008a007800f8815700a20020000800780006
:1006e000860007000900e00003003a00cfb0970041
:1006f0000128a300080032000000e9000081450045
:10070000b1c2b3000900e00001003200d1c2b30061
:1007100001497800050037000138a30003003200ca
:100720000000e90001c2b300817578004801900023
:100730000201e90000015100808045004fb297009e
:100740008a0178000c007800300207009c009000bd
:100750000188a3000400320098009000810f50002f
:1007600001003d00010078004f0778004f06be00f1
:100770004f05be004f04be00cf00b10000000600d0
:100780000200fa00889fbe008a9fbe0080057800a4
:1007900001047800020078001801900028059000fc
:1007a00098007800b1bf9f00b80490000200e000fc
:1007b000020035000110a100b1bf9f00ea8157007f
:1007c000820020008a0078003002be002003be00b4
:1007d00008007800490007003fb99700f000610069
:1007e000030032000000e90001c3b3008174780007
:1007f0003fb99700e8006100030032000000e90003
:1008000001c2b30081747800480190000201e90040
:1008100000015100808044003fba97008a017800af
:100820000b007800f90107009b0090000188a300ed
:100830000400320098009000810f500001003d003c
:10084000010078004f05be004f04be000080fa0092
:1008500000000600ea874700889fbe008a9fbe000e
:100860008e1f78000004780003007800728757001c
:1008700084e2260055c72600049fbe00c3962200ce
:10088000030f78006c875700004feb0011059000b4
:10089000a1049000910578000200e00002003200ff
:1008a0000207780001003700728757000000e0005f
:1008b00002003a000e0078004e0407000a00e00033
:1008c000030035008a0f5000010036000a0078004e
:1008d0000b02780089017800000178008e00780012
:1008e00008007800c90107004f0778004f05be00d7
:1008f0004f04be00af00b10000000600f4874700bf
:10090000889fbe008a9fbe008c9fbe008e1f78000d
:100910000605be000404be0081bf9f0082b79f0091
:10092000f3b79f00b0009000e1b79f00130178007b
:1009300092b79f0090069000400090000000e900f0
:10094000000678000d00e00001003d001d002000c1
:100950008040eb00efb19700817178001e0020000d
:100960001f0037000c06e9000fb09700cf80de00b3
:100970006109b900a0b79f00b1b79f00c2b79f003f
:10098000d3b79f000203be000002be000800be00f5
:100990000a01be0069050700000778000e407800d4
:1009a0000043b000efb0970080707e008d06e90034
:1009b0000fb997000201e90082bf9f002fb2970094
:1009c000bfb297004fb39700dfb397000800be0097
:1009d0000a01be00520507000205be000004be0069
:1009e0000c00e0000d003400e00f5400e08f5c00cc
:1009f000e00f5d00e08f5d00daff3a000d00e000df
:100a0000d8ff3c008fb997000300e00003003400da
:100a10001fb097000018a300d2ff3a000e00e000bc
:100a200002003a00ffb097001140a1000c007800ce
:100a30004f0778004f06be004f05be004f04be00b2
:100a40004f01b100000006000200fa00889fbe00be
:100a50008a9fbe000005780001047800020078003b
:100a600018019000a804900098007800b1bf9f0082
:100a7000b80590000200e000020035000110a1005e
:100a8000b1bf9f00ea815700a200200089007800d2
:100a90003002be002003be000800780097ff070068
:100aa000480190000201e9000001510080804500ea
:100ab0003fba9700890178000a00780053010700c7
:100ac0009a0090000188a300040032009800900072
:100ad000810f500001003d00010078004f05be006d
:100ae0004f04be000080fa0000000600fa874700ad
:100af000889fbe008a9fbe008c9fbe008e1f78001c
:100b000080047800010478008205780018019000c4
:100b10002805900018077800b80090000200e00057
:100b2000020035000e10a100010037001200200065
:100b300070006700e0b79f00090032003b02be0072
:100b40002b03be00e00f5200e08f5a00e00f5b0065
:100b5000e08f5b00020032008a86e9000100370066
:100b60008a067800e8026700f5b79f0001003200ae
:100b70008d06e9003b02be002b03be00e4af9f00e0
:100b8000f5af9f0086b79f0097b79f00480690007b
:100b90000c06e9000040eb0080707e00efb2970089
:100ba0007fb297008903780081047800d8af9f0056
:100bb000020478008bbf9f008a0578000345780007
:100bc0002a0037000c06e9006fab97006f00630046
:100bd000e90f500002003c000003b00001003700a4
:100be0007005b0000a03fb001604b100f90f5300b2
:100bf0000c003e00000378000650a0001606b1006d
:100c0000f90f530007003e00b4b79f00a5b79f003f
:100c1000c7b79f0096030700cfb39700afb2970006
:100c20003fb2970080747e000804e9008d06e90059
:100c30006fa89700ffa897000fb197009fb197008a
:100c4000460020008301d1000281d3008180d300bf
:100c50000080d3000603e900faff3a00e0af9f00ee
:100c6000f1af9f0082b79f0093b79f00e10f56003e
:100c70000f0034006fa89700ffa897000fb19700ee
:100c80009fb19700e00f5000e08f5800e00f59002f
:100c9000e08f5900cbff3a000800e000c9ff3c009c
:100ca0000d00e000020034000e18a300c5ff3a005a
:100cb00089007800f4b79f00870478005fac970044
:100cc0008a4178000b0578008fbd97000500e00091
:100cd000100032003b02be002b03be00e4af9f00b9
:100ce000f5af9f0086b79f0097b79f00e00f5200b7
:100cf000e08f5a00e00f5b00e08f5b0005003200e0
:100d00000c06e90083707e000c06e90000c3b30006
:100d100080707e00ffb297000500e0000300320003
:100d20000c06e90000c2b30080707e00480190000c
:100d30000201e9000c0151008c8040000e02780095
:100d40008a01780009007800b0000700990090003f
:100d50000188a3000400320098009000810f500029
:100d600001003d00010078004f0778004f06be00eb
:100d70004f05be004f04be00af01b10000000600e9
:100d80008201780001017800f1ff27003f0337005e
:100d900084082000848f50001d0032000d003c00ac
:100da00014082000848f50002700320002003c000d
:100db000040820000400370024082000848f50001d
:100dc0003400320044082000848f500043003a0071
:100dd00036003700040a2000848f500027003200bc
:100de00004003c0004092000848f50003b003a00be
:100df00028003700020c2000828f50002f003200a4
:100e0000020f2000828f500034003a002b00370080
:100e10009380e9000200e0000500320081097800bb
:100e20001102fb00cfa2de00612bb90028003700c1
:100e300081097800114278000482fb008002eb00f7
:100e40006033b8002200370013027800e40052003b
:100e50000200e00005003200810978001102be00a6
:100e60004fabde0086037800190037008109780057
:100e70001102be006033b800150037009380e9000e
:100e80008109780011027800cfa2de00612bb90041
:100e90000f00370093027800e88052008109780043
:100ea0003102be002103be00090037009380e90033
:100eb0000200e00002003200f1ff37009380e900f9
:100ec00081097800110278008002eb006033b800dd
:100ed0000498be000690be0010000500000005004a
:100ee00044082000848f50002500320008003c0098
:100ef00014082000848f50001400320024082000c1
:100f0000848f500024003200040820000c003700b9
:100f100004092000848f50001f00320004003c00b0
:100f200084082000848f500024003a000e0037000f
:100f3000040a2000848f500011003200040c2000ad
:100f4000848f50001d003a000d0037009380e900a7
:100f5000810978009100780001087800cf91de00c7
:100f60008288be00140037009380e9008109780070
:100f70009100780001087800824878000e00370060
:100f80009380e900810978009100780001087800d9
:100f900082087800080037009380e9008109780012
:100fa00091007800010878006112b900612bb90046
:100fb0008498be008690be00100005000000050069
:100fc000889fbe00000478004800900082047800ea
:100fd000808f5400010036008004780009017800f9
:100fe00058009000180207005800900009004000c7
:100ff00050049800c800900089845000490498006b
:101000000048eb004f04be0000000600f2874700d6
:10101000889fbe008a9fbe008c9fbe008e1f7800f6
:1010200080047800010578000204780083057800c8
:101030006107620002003a008b0f5400080039007b
:10104000080178008a00780009007800dcff0700ba
:101050008b0f540002003900880578001e0037000d
:10106000088655000c017800f00f5600010036008c
:1010700002012000010220007e805700f9010700d4
:101080008c0678000500370002012000fe80570022
:1010900009007800caff0700f0865600ef8f56005f
:1010a000f9ff3e004461de0000ff2f000091b9000f
:1010b00002014600fe80570009007800c0ff0700cb
:1010c0000e00e00004003a00080178008a00780071
:1010d00009007800baff07000b0078004f0778007e
:1010e0004f06be004f05be004f04be002f01b100e9
:1010f00000000600000005000000050000000500db
:10110000000178000040eb008080fb0081804000ff
:10111000c380200063c278000404e00003003a00aa
:10112000d080200060c078000000060092017800a6
:10113000934f520004003a00d080200060c0780035
:101140000309e800010037000040e800ea4f5000c2
:10115000edff360000000600f6874700889fbe00be
:101160008a9fbe008c9fbe008e1f7800000578000d
:101170000104780083057800040678000000eb0085
:10118000c0b79f008080eb00d1b79f00e0b79f0001
:10119000f2b79f000008200080bf9f0098007800f1
:1011a000010078008004eb00010037008904e800aa
:1011b000304178000204e0000300320053c2b30063
:1011c000834f5100f9ff3a000900e00004003200ab
:1011d000090178000a00780079ff0700188c4400a4
:1011e0001807780050c2b3009e4f10003f013a002c
:1011f0000e07e8000e0c780010003700cfb0970003
:101200000100a0000b003700cfb097000110a00034
:1012100008003700cfb097000120a000050037007c
:10122000cfb097000130a00002003700cfb0970088
:101230000140a000c1b79f00000ce8001800780032
:1012400090407800b2c2b30082cf5000f1ff32006c
:1012500007003c0002c2b30082cf5000f0ff320012
:1012600032c2b30082cf500007003a00efff3700d0
:10127000d2c2b30082cf5000e0ff320002c3b300fd
:1012800082cf5000e0ff3200a2c2b30082cf5000f4
:101290000d003a00000ce8001c80e900000e780008
:1012a00010007800e0b79f000000e0000f003d0054
:1012b000cfb097000100a200c1b79f000000ea0074
:1012c000e0b79f000900370039010700e0b79f0031
:1012d00001003700000ce800180078009000fb00c7
:1012e0000103b100e98f5000faff36004fb09700bc
:1012f0000008a300020032000010a100c0b79f0048
:1013000018007800e1c2b30090cf100016003a0038
:101310008000eb00d1b79f000000e800000c7800cf
:10132000a1c2b30090cf100006003a00000ce80004
:101330001c80e900000e780010007800d0b79f00f4
:10134000090037001a010700d0b79f0001003700dd
:10135000000ce800180078009000fb000103b100c9
:10136000e98f5000faff36000800780064ff07009c
:1013700080467800180078001000fb00b5010700d7
:1013800091062000810f50003800320012003c000e
:1013900041062000810f5000340032000a003c005a
:1013a00011062000810f500020003200310620007d
:1013b000810f5000a000320051022000810f500028
:1013c000bc003a00b400370071062000810f5000c5
:1013d000b8003c008800370001072000810f500052
:1013e0005c00320007003c00e1062000810f500045
:1013f0007a003200f1062000810f5000ad003a0063
:101400003900370051072000810f500027003200bb
:1014100081072000810f5000420032003107200078
:10142000810f5000a3003a008f0037008d80fb0031
:101430000c01780000fe2f000f004000b8010700eb
:101440000000e000a800320018007800000ce8005e
:101450009041780002fe2f000f014100f8805700f4
:101460000a00780024ff07000e0037008d80fb0083
:101470008c0178001200200000fe2f000f004000b9
:1014800043fe07000000e00097003200180ce8005f
:1014900002fe2f000f014100f88057000a0078007b
:1014a0005efc070080844400900037008d80fb00c4
:1014b0008c0178000001eb0000fe2f000f004000bf
:1014c00033fe07000000e00087003200180ce8003f
:1014d00002fe2f000f014100f88057000a0078003b
:1014e00059fd0700efff37008d80fb008c0178006d
:1014f0000001eb0000fe2f000f00400024fe07005b
:101500000000e00078003200180ce80002fe2f0016
:101510000f014100f88057000a00780098fc07008e
:10152000e0ff37008d80fb008c0178000001eb00ac
:1015300000fe2f000f00400015fe07000000e00035
:101540006900320018007800000ce8009041780033
:101550001c0037008c0178000001eb00010f200017
:1015600000fe2f000f00400009fe07000000e00011
:101570005d003200180ce8000fb097009fb0970094
:101580002fb19700bfb19700e00f5000e08f5800d7
:10159000e00f5900e08f590009003a00cfb59700dd
:1015a0006fb4970040802000120107000b02780002
:1015b0008801780000017800418020004700370052
:1015c00083c7b30002fe2f000f014100f8805700cf
:1015d0000a00780045fd0700b2ff37000b81440088
:1015e0008d80fb008c01780000fe2f000f00400072
:1015f0003bfe07003c0037008d80fb000c017800ab
:1016000000fe2f000f004000450107000000e00031
:101610003500320018007800000ce8009041780096
:1016200002fe2f000f014100f88057000a007800e9
:10163000b1fe07009bff370000c8b30080cf560003
:1016400029003a00180ce8001c80e900000e780020
:1016500010407800e0df9f0013002000e2fd2f0023
:101660000f0141000800370000c8b30080cf5600ca
:101670001d003a00180ce8001c80e900000e7800fc
:101680008001eb0010017800f88057000a00780014
:1016900070fc070083ff370000c8b30080cf5600fe
:1016a00011003a00180ce8004fb29700efb1970014
:1016b000080037000e0c78000000eb00c0b79f0058
:1016c000e0b79f000080eb00d0b79f000002eb0066
:1016d0008401780012002000a18020000a00780018
:1016e0004afe07006fff3700180ce8000900780079
:1016f0004f0778004f06be004f05be004f04be00e6
:101700006f01b100000006008200fa00889fbe0051
:101710008a1f78000005780082047800c13f9f008e
:101720000004eb00100037000902780088017800ff
:10173000a2f72f000f01410081f72f008f8040009a
:101740000a00780084fe070008004000880f50005f
:1017500004003d00b0042000104188000084eb002c
:1017600004003700000478004f3897001004e000b0
:10177000edff3a00080078004f0578004f04be00e6
:101780000080fa00000006008000780010002000b1
:1017900002022000828f500004003200e9805000d5
:1017a000e48f5000010036000000eb00000006004e
:1017b000889fbe008a1f7800000578000a04780020
:1017c000984478000805e8000900fb00eeff0700d8
:1017d0000000e000f9ff3a00b0c2b30080cf54002f
:1017e00005003200d0c2b3008000eb0080cf54006f
:1017f00005003a00020037008000eb0001003700ce
:10180000110020000804e8000000eb00030037008e
:101810006a02b900020052000003b0003801fb0068
:1018200003fd2f0082814100e98f5100f8ff36004f
:101830000100e00001003a000000ea004f057800d6
:101840004f04be000000060080017800020037004f
:10185000b15978000201e9000200e000fcff3a0003
:1018600000000600889fbe008a9fbe0080047800aa
:101870000200e0005b00320001407800814c7800fb
:1018800082814400f1f99f00e20f510055003600bb
:1018900091449800a1449800e1f99f00d1f99f007c
:1018a000e60f51004f003600b1449800c1f99f0087
:1018b000e80f51004b0036000905ea00630565009a
:1018c0000a8444000a055100c1ff2f00010565008c
:1018d0000080fb008000eb0012102000131020009d
:1018e000f0000700008cbe000a01440060b99f00b0
:1018f00071b99f00e80f55003a00360020049800a7
:1019000031049800400498005104980020b99f00c9
:1019100031b99f0040b99f0051b99f00f80f5500a1
:10192000300036006004980071049800000c9800a4
:10193000110c9800200c9800310c9800400c980075
:10194000510c980020b19f0031b19f0040b19f0021
:1019500051b19f0060b19f0071b19f0000b99f001d
:1019600011b99f0064016400780141000204440041
:10197000020555006011b8000203be000002be005f
:101980000403be006022b800000072008180720073
:10199000020173008381730010003700009cbe00b9
:1019a0000294be004004980051049800620498001c
:1019b00073049800000c9800110c9800220c9800f9
:1019c000330c9800400c9800510c9800620c980061
:1019d000730c98000a02b1000802b000ff0f550016
:1019e000eeff3e00090078004f05be004f04be0028
:1019f0000000060080007800040037003104e00099
:101a000002003a00000051000000060001017800c9
:101a10000108a300f9ff3a00810178003101780044
:101a2000f4ef2f00020242000281ea00020162008c
:101a30000408280004016100f7ff320083007800e9
:101a4000010178003104e000fdff3a000000510080
:101a500000000600f1fb2f0080804000f98f50004d
:101a600001003e000050a00000000600f9ff370012
:101a7000f1f92f0080804000f98f500001003e00f6
:101a8000f005b20000000600f9ff3700f2874700ba
:101a90008e1f780002027800030178000000e00049
:101aa00002003200000778000100370072875700fb
:101ab0008002eb000100e000010032008102e90039
:101ac00070805700060009000018eb000080eb0052
:101ad00080bf9f002310200093bf9f00aebf9f00d8
:101ae000b1bf9f00c5bf9f000100e00003003d00a3
:101af000b10420001141880006003700004feb00c0
:101b0000eebf9f00debf9f0084007800708057000a
:101b1000220007004f0778002f01b10000000600e7
:101b2000881f78000004780000082000808f500093
:101b30001700350010082000808f50000b00340083
:101b400030082000808f500011003a009200780089
:101b500068805000000978003002be002003be00fb
:101b6000049cbe000694be00070037009202780075
:101b700064805200000978001000be0015000700c4
:101b8000009cbe000294be0010002000010037003f
:101b90000000eb004f047800000006000200fa008d
:101ba000881f780000047800e2bf9f00648157001e
:101bb00008007800d4fe0700980090000148a300b8
:101bc000010032000080eb004f0478000080fa0032
:101bd00000000600810378001d0007000001be0020
:101be0006000b8000478a30013003a006220e1000e
:101bf00015003e000d0039008301d1000281d300a1
:101c00008180d3008301d1000281d3008180d30081
:101c10008301d1000281d3008180d3000538b00058
:101c2000c42add00f300b2008381720007f0a70030
:101c300003f0a0000000060083ff27000200200040
:101c40006110b900f9ff370003ff2700f7ff3700e5
:101c5000c70ade00f107b200f50fb200080032003b
:101c6000e1cf4200020032000170a0002400050014
:101c7000810f7000010032000408050044000500d7
:101c8000810f700002003a00140005008502e9008f
:101c90000000400081c04800fcff3b000170a00034
:101ca00024000500020ab900001bb9000200b800b8
:101cb000810042008100430000000600889fbe00b2
:101cc0008a9fbe0030044200b0844a0030054b00b9
:101cd00090854b006000b1000898be000a90be00dd
:101ce0000440e10005c8e10006d0e10007d8e100aa
:101cf00002003100680040001008e8004f05be00f7
:101d00004f04be0000000600889fbe008a9fbe00f0
:101d10003004be002005be000418540005985c0085
:101d200006185d0007985d00110020000440e100e6
:101d300005c8e10006d0e10007d8e1000100390044
:101d40008000eb00108810004f05be004f04be005d
:101d5000000006001200fa00889fbe008a9fbe00a5
:101d60008c9fbe00e0b79f00f1b79f0082bf9f002d
:101d700093bf9f000605be000404be000000eb00f8
:101d8000d0b79f00c0b79f00b0b79f00a0b79f001b
:101d900090b79f00000678005fb19700cfb0970022
:101da000820141003fb097000200e00004003d00c6
:101db000370007007e805700c0ff07000300370090
:101dc000330007007e805700cfff0700dfb6970083
:101dd0000d00e0000c0035006fb29700ffb29700d5
:101de0000fbb97009fbb9700100020000100200050
:101df0006011b80000027200818272000203730059
:101e0000838373001b0007000c06e8000104200018
:101e1000810f5600e0ff3a000d00e00004003d0095
:101e20000802be000a03be007e805700a3ff070021
:101e30005fa897000000e00005003a001fb297007d
:101e4000afb297003fb39700cfb3970009000700e8
:101e50006fb09700ffb097000fb997009fb9970038
:101e60004f06be004f05be004f04be000080fa00c2
:101e7000000006000100070000000600a4b79f0054
:101e8000b5b79f00c6b79f00d7b79f0000000600f8
:101e90004f09de0082817100b3b79f004f01de0061
:101ea0008180400082807000a1b79f008fb09700b2
:101eb0004f09de00000040000200700090b79f0054
:101ec0007fa897004f01de00818040008280700073
:101ed00081b79f000d0007004f3ade000000400070
:101ee00004007000f0af9f000800070004024200e9
:101ef00085824a0006034b0087834b00dfff070003
:101f00000802be000a03be00000006002fb29700c0
:101f1000bfb297004fb39700dfb3970000000600f1
:101f2000881f780018002000881f780089ff0700ac
:101f30008f87e9004f04780000000600801feb0047
:101f400084ff07008f87e90000000600889fbe001d
:101f50008a9fbe00e00f5000e08f5800e00f59004c
:101f6000e08f59000c003d006044b8006055b80097
:101f70000000540081805c0002015d0083815d00ef
:101f8000180020001500070008003d001800070099
:101f90000004eb00050037000004eb000f00070011
:101fa00002003d001200070018002000dcff0700bf
:101fb0000800e000060032006022b8006033b8007c
:101fc0000000520081805a0002015b0083815b00a7
:101fd0004f05be004f04be0000000600e00f520097
:101fe000e08f5a00e00f5b00e08f5b00000006000e
:101ff0006044b8006055b8000402540085825c005b
:1020000006035d0087835d0000000600889fbe0018
:102010008a9fbe008c1f7800e00f5000e08f5800b0
:10202000e00f5900e08f59000d003d006044b800fa
:102030006055b8000000540081805c0002015d0022
:1020400083815d001c0020000820e10009a8e10058
:102050000ab0e1000bb8e1000d003d0008003700b8
:102060000006eb00e00f5200e08f5a00e00f5b002b
:10207000e08f5b0006003d006044b8006055b8008a
:102080000402540085825c0006035d0087835d00c6
:10209000aaff07000c00e000060032006022b80032
:1020a0006033b8000000520081805a0002015b00da
:1020b00083815b004f0678004f05be004f04be00d1
:0420c0000000060016
:020000040000fa
:1020c4000a1f00001f0e00000400000000000000b2
:1020d400040400001f0e00000400000000000000c3
:1020e40025300000327500003a250000303200002f
:1020f40075000000577900006269000065720000f5
:102104007a200000637a0000617300003a00000046
:10211400312000006d6900006e75000074610000dc
:1021240000330000206d0000696e0000757400002b
:1021340079000000352000006d6900006e75000014
:1021440074000000537400006172000074200000e9
:102154007a61000020000000503100003a200000a5
:1021640000200000503200003a200000002000004f
:10217400503100003a20000000500000323a0000c4
:102184002000000047720000616300007a20000014
:10219400312000002d3e0000206300007a61000021
:1021a400732100000047000072610000637a0000a0
:1021b40020320000202d00003e200000637a000041
:1021c40061730000210000004b6f00006e69000085
:1021d40065630000206700007279000000200000a1
:1021e4005a6500006761000072200000537a000005
:1021f40061630000686f0000777900000000000050
:020000040000fa
:102204000000fa00f03f2000103088003038280029
:10221400003088001000200060308800008823000f
:10222400110020001801070000882300110020007d
:10223400150107000426ef00300320004030880019
:1022440050032000010020000f0107000426ef00c6
:1022540020032000403088005003200001002000ab
:10226400090107000426ef008003200040308800a5
:102274005003200001002000030107000426ef00a2
:10228400c0002000403088005003200001002000de
:10229400fd0007000426ef006000200040308800a5
:1022a4005003200001002000f70007006d00070024
:1022b40010c0b3000080fa00000006000400fa0019
:1022c400000f7800110798000a0037001e007800fc
:1022d400104078000000fb000000e0001100320014
:1022e4001e007800104078001e0fe8001000070060
:1022f400000000001e00900000f0a7000000ea00ab
:102304000000ea004f00de00004078009e009000cc
:102314008100e900110798000004e000ebff3a0097
:1023240001003700000000000080fa0000000600f1
:102334000200fa00004f78001e00fb00ea0f500074
:102344000e003200ea0f500003003c00e80f50007a
:10235400150032001b003700ec0f5000170032004c
:10236400ed0f500017003a0002c8bf00ea4f5000ba
:10237400360032004c0007003500370002c8bf00a9
:10238400ed4f5000010032004700070000c8bf00b5
:102394000004e00002003a00b00007002c003700ff
:1023a400a30007002a0037005300070000c2b3004f
:1023b400dfff070050000700250037002900070051
:1023c4002300370001c8bf00f04f500014003a004a
:1023d4000168ef0000c8bf000004e00009003a00f3
:1023e4000426ef00000c2000403088005003200039
:1023f40001002000a400070010c0b30000e8b700eb
:10240400070037000426ef00000820004030880051
:1024140050032000010020009b0007000068ef002b
:1024240010002000203088001e00fb00403088008f
:1024340050032000010020009300070001c8bf00e2
:102444000040e80001e8b700010037000000000088
:102454001e41780021802000824878000080fa0024
:10246400000006000000fa000426ef00100020001f
:1024740040308800a088200001002000820007006e
:102484000426ef002000200040308800a0882000af
:10249400010020007c0007000068ef000168ef00e5
:1024a4000080fa00000006000000fa0000c8bf0027
:1024b4000004e00007003a000426ef0000082000b2
:1024c4004030880050032000010020006e00070007
:1024d400060037000426ef00000c2000403088007e
:1024e4005003200001002000670007000168ef008e
:1024f4000080fa00000006000200fa0001c8bf00d4
:102504000004e0001c003a0000c8bf000004e00022
:1025140009003a000426ef00000c20004030880037
:1025240050032000010020005700070010c0b30032
:1025340000e8b700070037000426ef000008200079
:102544004030880050032000010020004e000700a6
:102554000068ef000040eb00004f780002003700f5
:10256400100007001e4fe8001e407800ee4f500098
:10257400fbff36000900370001c8bf000040e90036
:1025840001e8b7000426ef00000120004030880075
:1025940050032000010020003b0007000080fa00e7
:1025a400000006000000fa000426ef0040012000ad
:1025b4004030880050032000010020003200070052
:1025c40001c8bf000040e80001e8b70001c8bf002f
:1025d400f04f500014003a000168ef0000c8bf003b
:1025e4000004e00009003a000426ef00000c20007b
:1025f4004030880050032000010020002200070022
:1026040010c0b30000e8b700070037000426ef004d
:102614000008200040308800500320000100200002
:10262400190007000068ef000080fa0000000600af
:102634000200fa000040eb00004f7800020037006f
:10264400adff07001e4fe8001e407800ef4f50001a
:10265400fbff36000080fa00000006000200fa00ca
:102664000040eb00004f780002003700cdff070068
:102674001e4fe8001e407800ef4f5000fbff36006d
:102684000080fa00000006000400fa00008fbe007b
:1026940005003700000000000081eb008081eb00a2
:1026a4001e0f41005e9749001e00be00e00f50005f
:1026b400e08f5800f7ff3a000080fa00000006009f
:1026c4000200fa00004f78001e4078000004e00089
:1026d400070032000426ef00f0002000403088009c
:1026e4005003200001002000e7ff07000600370028
:1026f4000426ef00c0002000403088005003200072
:1027040001002000e0ff07000080fa00000006003e
:102714000600fa0020479800210798002e409000f8
:1027240067406000204798000426ef002e40900088
:102734000080fb004300dd000060a0004030880002
:102744005003200001002000cfff07000000eb0031
:10275400000f78000c0037001000200020308800a3
:102764001e007800ae009000008040001040780009
:102774000080fb004030880050032000010020004e
:10278400c1ff07001e0fe8001e007800e70f50008d
:10279400f1ff34000080fa00000006000400fa0093
:1027a400008fbe009e00900000fa20000088b9004f
:1027b400000178001e0078006000b9000000780075
:1027c400000141009e00780000fa20000008b800d3
:1027d4000101410082007800110207000080fa0024
:1027e400000006000a00fa0020079800310798004c
:1027f400420798002e009000be00900002a62e0012
:102804000300200064f70700000f78002e009000fa
:10281400be00900002a62e00030020006ef7070001
:10282400823e2000030020005bf707001007980099
:102834009e009000811f78009e1f780020072900c9
:10284400801f78004e00900066f70700e687570067
:102854000080fa00000006000400fa0030002000a6
:10286400000f78000100370000000000fdfe0700a3
:10287400d1002000c007290090fe0700a0c0b300cb
:10288400abfe070050002000260107001007980047
:102894001e009000e10f400002003a00000000001a
:1028a400f2ff37009e00900040152000808f5000fa
:1028b40006003e0010002000000f78008100200078
:1028c400a00829007dfe07000f0037009e0090003d
:1028d400902a2000808f500006003e003000200027
:1028e400000f7800810020003009290073fe0700e2
:1028f4000500370050002000000f78007100200010
:10290400c00929006dfe0700401f200001002000bf
:10291400a2ff0700200020005e0107000004e00081
:10292400d1ff32001e0078000080fa00000006008b
:102934000200fa0030002000000f78000c0037007d
:10294400c8fe070091002000400a29005bfe070032
:102954001e007800004078000043b00074fe0700b9
:10296400803e2000010020008cff07001e0fe900bc
:102974001e0078000000e000f1ff3c000080fa0037
:10298400000006001000fa00300798004107980084
:102994005207980063079800644f9800b1fe07003f
:1029a4006e489000e14f500019003a000040eb00df
:1029b4005ffe070041002000e00a29003ffe0700f7
:1029c4000e0178003e009000ce00900085ff0700c5
:1029d400510020000e00780038fe0700a0c0b300ac
:1029e40053fe070051002000300b290033fe07007e
:1029f4000e0178005e009000ee00900079ff070061
:102a0400510020000e0078002cfe0700180037004b
:102a140051002000900b290028fe07000e017800c9
:102a24003e009000ce0090006eff07005100200091
:102a34000e00780021fe0700a0c0b3003cfe070092
:102a44000040eb003afe070041002000f00b290093
:102a54001afe07000e0178005e009000ee00900060
:102a640060ff0700510020000e00780013fe0700ed
:102a74000080fa00000006000200fa00004f78000f
:102a840078fe07001e407800e14f500004003a0031
:102a940011012000400c290008fe07000300370044
:102aa40011012000500d290004fe0700a0c0b3004e
:102ab4001ffe070010c0b3001dfe0700a100200088
:102ac400600e2900fdfd0700ffff37000c00fa002f
:102ad400cbfd070063fe0700a10629000040eb00c0
:102ae4000bff07002106290010c0b30008ff0700f0
:102af400100020001d010700400020001b010700fa
:102b040020002000190107000000eb00bf000700af
:102b140050002000ad000700c022ef0010c0b30039
:102b240003fe0700f1002000100f2900e3fd070059
:102b3400c05d20000100200018ff070046ff0700c9
:102b4400500798007aff07005e0090008000eb00b9
:102b540002a62e000289b900020178006002b900c1
:102b6400840178000301410003a62e000300b8008d
:102b74000101410082007800008fbe005e009000d9
:102b84008000eb0002a62e000289b9000201780041
:102b94006002b900840178000301410003a62e00fd
:102ba4000300b8000101410082007800200798006a
:102bb4003107980010c0b300004f9800010037009f
:102bc4000000000010002000b20007000004e00034
:102bd4000300320020c0b300004f98000600370005
:102be40040002000ab0007000004e00002003200b7
:102bf40010c0b300004f98000e4a90002e019000c0
:102c0400be0190001e00be005eff0700803e200053
:102c140001002000e1fe07000e489000e14f500043
:102c240009003a001e00be00e00f5000e08f58007b
:102c34000500320082c12f00f3ff2f001e0f410058
:102c44005e9749000e0037000e489000e24f500096
:102c54000b003a002e009000be009000e00f5000e0
:102c6400e08f5800060032002e009000be00900055
:102c7400803eb1000180b100200798003107980020
:102c84001e00be00e00f5000e08f580002003a0022
:102c940010c0b30078ff07002e009000be00900023
:102ca400e00f5000e08f5800c5ff3a0020c0b30089
:102cb40071ff0700c3ff37000400fa0010079800f3
:102cc4001e009000e40f500004003200e50f500095
:102cd4000400320000c0eb001000370000000000c8
:102ce40001003700000000001e0090000d000700e6
:102cf400d1cc2c000100b8004308de00004f78005e
:102d040040c6b3009e40780080cf500002003600d9
:102d140040c6b300004f78001e4078000080fa00df
:102d2400000006000400fa00100798001e0090003e
:102d3400e40f500004003200e50f5000040032009c
:102d44000080eb001f003700000000000100370086
:102d5400000000009e009000411988002023a80074
:102d64000000eb00000f78000200370000000000b4
:102d74001e0fe800703e20009e007800808f5000f7
:102d8400faff36002023a9000000eb00000f7800b2
:102d940002003700000000001e0fe800703e200013
:102da4009e007800808f5000faff3600000000007b
:102db40000198000610060000000e000fcff3200a8
:102dc400001880000080fa00000006000200fa00eb
:102dd400000f78001e007800e40f50000500320058
:102de400e50f500006003a002ca3a90010c0b30060
:102df400040037002c83a90010c0b3000100370081
:102e04000040eb000080fa00000006000200fa0017
:102e1400000f78001e0078000000e0001a003a005d
:102e240011198000f0ff2100008060001019880053
:102e340000c0eb0024e3b70001198000f0f12f007b
:102e4400008060000019880021198000f00f2e0016
:102e54000080600000c0a0002019880001198000d3
:102e6400f0cf2f0000806000001988001119800045
:102e740030fc2f00008060001019880021e3a800b6
:102e840010c0b300010037000040eb000080fa00de
:102e9400000006000200fa00000f78001e0078000f
:102ea400e20f500013003200e20f500003003e0016
:102eb400e10f50000600320029003700e30f5000f4
:102ec40015003200e40f50001c00320024003700cb
:102ed400a1168000000420000080600000f0a7001c
:102ee4000000ea000000e9004f00de000040780026
:102ef4001c003700a116800000082000008060003c
:102f040000f0a7000000ea000000e9004f00de0026
:102f140000407800130037001116800000082000dc
:102f24000080600000f0a7000000ea000000e90053
:102f34004f00de00004078000a003700a116800030
:102f4400000022000080600000f0a7000000ea00fa
:102f54000000e9004f00de00004078000100370067
:102f64000040eb000080fa00000006000200fa00b6
:102f7400000f78001e007800e20f50000c003200b1
:102f8400e20f500003003e00e10f50000600320043
:102f94000d003700e30f500007003200e40f50002b
:102fa4000700320008003700d2c2a800060037002c
:102fb400d2e2a80004003700c0e2a80002003700f3
:102fc400d3a2a800000000000080fa000000060060
:020000040000fa
:102fd40000080000040000000000000004080000d5
:102fe4001e00000002000000286e69006c29000029
:102ff40025006800076c09004c836a009074a000e7
:103004007ac000008068880000846c00820081001f
:103014002208000002000000000000000000000080
:020000040000fa
:10302400f03fb1000180b10006003500ee03090055
:1030340000000000403fb1000180b100fbff3d00f3
:103044001000b000203fb0000200350000800900ed
:0830540000000000000006006e
:020000040000fa
:020000040002f8
:04aff8009dfa0000be
:020000040000fa
:020000040002f8
:04affc007f3f000093
:00000001FF
