:020000040000fa
:080000000002040000000000f2
:020000040000fa
:04000800c80200002a
:020000040000fa
:04000c00c802000026
:020000040000fa
:04001000c802000022
:020000040000fa
:04001400c80200001e
:020000040000fa
:04001800c80200001a
:020000040000fa
:04001c00c802000016
:020000040000fa
:04002000c802000012
:020000040000fa
:04002400c80200000e
:020000040000fa
:04002800c80200000a
:020000040000fa
:04002c00c802000006
:020000040000fa
:04003000c802000002
:020000040000fa
:04003400c8020000fe
:020000040000fa
:04003800c8020000fa
:020000040000fa
:04003c00c8020000f6
:020000040000fa
:04004000c8020000f2
:020000040000fa
:04004400c8020000ee
:020000040000fa
:04004800c8020000ea
:020000040000fa
:04004c00c8020000e6
:020000040000fa
:04005000c8020000e2
:020000040000fa
:04005400c8020000de
:020000040000fa
:04005800c8020000da
:020000040000fa
:04005c00c8020000d6
:020000040000fa
:04006000c8020000d2
:020000040000fa
:04006400c8020000ce
:020000040000fa
:04006800c8020000ca
:020000040000fa
:04006c00c8020000c6
:020000040000fa
:04007000c8020000c2
:020000040000fa
:04007400c8020000be
:020000040000fa
:04007800c8020000ba
:020000040000fa
:04007c00c8020000b6
:020000040000fa
:04008000c8020000b2
:020000040000fa
:04008400c8020000ae
:020000040000fa
:04008800c8020000aa
:020000040000fa
:04008c00c8020000a6
:020000040000fa
:04009000c8020000a2
:020000040000fa
:04009400c80200009e
:020000040000fa
:04009800c80200009a
:020000040000fa
:04009c00c802000096
:020000040000fa
:0400a000c802000092
:020000040000fa
:0400a400c80200008e
:020000040000fa
:0400a800c80200008a
:020000040000fa
:0400ac00c802000086
:020000040000fa
:0400b000c802000082
:020000040000fa
:0400b400c80200007e
:020000040000fa
:0400b800c80200007a
:020000040000fa
:0400bc00c802000076
:020000040000fa
:0400c000c802000072
:020000040000fa
:0400c400c80200006e
:020000040000fa
:0400c800c80200006a
:020000040000fa
:0400cc00c802000066
:020000040000fa
:0400d000c802000062
:020000040000fa
:0400d400c80200005e
:020000040000fa
:0400d800c80200005a
:020000040000fa
:0400dc00c802000056
:020000040000fa
:0400e000c802000052
:020000040000fa
:0400e400c80200004e
:020000040000fa
:0400e800c80200004a
:020000040000fa
:0400ec00c802000046
:020000040000fa
:0400f000c802000042
:020000040000fa
:0400f400c80200003e
:020000040000fa
:0400f800c80200003a
:020000040000fa
:0400fc00c802000036
:020000040000fa
:04010000c802000031
:020000040000fa
:04010400c80200002d
:020000040000fa
:04010800c802000029
:020000040000fa
:04010c00c802000025
:020000040000fa
:04011000c802000021
:020000040000fa
:04011400c80200001d
:020000040000fa
:04011800c802000019
:020000040000fa
:04011c00c802000015
:020000040000fa
:04012000c802000011
:020000040000fa
:04012400c80200000d
:020000040000fa
:04012800c802000009
:020000040000fa
:04012c00c802000005
:020000040000fa
:04013000c802000001
:020000040000fa
:04013400c8020000fd
:020000040000fa
:04020800c802000028
:020000040000fa
:04020c00c802000024
:020000040000fa
:04021000c802000020
:020000040000fa
:04021400c80200001c
:020000040000fa
:04021800c802000018
:020000040000fa
:04021c00c802000014
:020000040000fa
:04022000c802000010
:020000040000fa
:04022400c80200000c
:020000040000fa
:04022800c802000008
:020000040000fa
:04022c00c802000004
:020000040000fa
:04023000c802000000
:020000040000fa
:04023400c8020000fc
:020000040000fa
:04023800c8020000f8
:020000040000fa
:04023c00c8020000f4
:020000040000fa
:04024000c8020000f0
:020000040000fa
:04024400c8020000ec
:020000040000fa
:04024800c8020000e8
:020000040000fa
:04024c00c8020000e4
:020000040000fa
:04025000c8020000e0
:020000040000fa
:04025400c8020000dc
:020000040000fa
:04025800c8020000d8
:020000040000fa
:04025c00c8020000d4
:020000040000fa
:04026000c8020000d0
:020000040000fa
:04026400c8020000cc
:020000040000fa
:04026800c8020000c8
:020000040000fa
:04026c00c8020000c4
:020000040000fa
:04027000c8020000c0
:020000040000fa
:04027400c8020000bc
:020000040000fa
:04027800c8020000b8
:020000040000fa
:04027c00c8020000b4
:020000040000fa
:04028000c8020000b0
:020000040000fa
:04028400c8020000ac
:020000040000fa
:04028800c8020000a8
:020000040000fa
:04028c00c8020000a4
:020000040000fa
:04029000c8020000a0
:020000040000fa
:04029400c80200009c
:020000040000fa
:04029800c802000098
:020000040000fa
:04029c00c802000094
:020000040000fa
:0402a000c802000090
:020000040000fa
:0402a400c80200008c
:020000040000fa
:0402a800c802000088
:020000040000fa
:0402ac00c802000084
:020000040000fa
:0402b000c802000080
:020000040000fa
:0402b400c80200007c
:020000040000fa
:0402b800c802000078
:020000040000fa
:0402bc00c802000074
:020000040000fa
:0402c000c802000070
:020000040000fa
:0402c400c80200006c
:020000040000fa
:0402c800c802000068
:020000040000fa
:0402cc00c802000064
:020000040000fa
:0402d000c802000060
:020000040000fa
:0402d400c80200005c
:020000040000fa
:0402d800c802000058
:020000040000fa
:0402dc00c802000054
:020000040000fa
:0402e000c802000050
:020000040000fa
:0402e400c80200004c
:020000040000fa
:0402e800c802000048
:020000040000fa
:0402ec00c802000044
:020000040000fa
:0402f000c802000040
:020000040000fa
:0402f400c80200003c
:020000040000fa
:0402f800c802000038
:020000040000fa
:0402fc00c802000034
:020000040000fa
:04030000c80200002f
:020000040000fa
:04030400c80200002b
:020000040000fa
:04030800c802000027
:020000040000fa
:04030c00c802000023
:020000040000fa
:04031000c80200001f
:020000040000fa
:04031400c80200001b
:020000040000fa
:04031800c802000017
:020000040000fa
:04031c00c802000013
:020000040000fa
:04032000c80200000f
:020000040000fa
:04032400c80200000b
:020000040000fa
:04032800c802000007
:020000040000fa
:04032c00c802000003
:020000040000fa
:04033000c8020000ff
:020000040000fa
:04033400c8020000fb
:020000040000fa
:100400004f8020000e7f22000e01880000000000b7
:10041000000020000000e000020032000001200087
:1004200020028800140007005b0007000000e000c5
:1004300003003a008078200001002000020037000d
:100440000000200001002000810f70000100320038
:1004500014000700000020000000e000020032004d
:100460000000020000000000c606020000000000bc
:100470000040da000000fe004440a900e004200033
:100480000000e0000300320000002000a00188000e
:100490004440a800000006008a1f78008b1f7800e7
:1004a0000000060091018800800478000000eb0045
:1004b0001a003700e284440032a0b4009905ba0063
:1004c000e284440032a0b4009906ba00e2844400f9
:1004d00032a0b4000006eb00476fde00fd07b2005b
:1004e000636ce10003003a00ebff07000000eb0043
:1004f0000a003700606ce10004003a00005deb0088
:100500008b05e900fdff3e00040037006168e10053
:10051000010032000086eb000b00070019c7ba008b
:100520001905ba000e04e00003003a000a00e000da
:10053000e0ff3a0000000600fe07b2009e018800be
:100540008a047800f5ff3700395dba008b05e900b1
:100550000c003200295dba008b05e900080032006a
:100560000c00e00003003a00e284440032a0b40032
:10057000f5ff370019ddba008b05e900faff3a00f4
:100580008904e800e184440032a0b40000000600c1
:100590000040da000000fe00000005008000780046
:1005a000040037003104e00002003a00000051006e
:1005b00000000600010178000108a300f9ff3a00dd
:1005c0008101780031017800f4ef2f00020242002f
:1005d0000281ea00020162000408280004016100af
:1005e000f7ff320083007800010178003104e00059
:0c05f000fdff3a00000051000000060072
:020000040000fa
:1005fc000a1f00001f0e0000040000000000000095
:10060c00040400001f0e00000400000000000000a5
:10061c0001200000454c0000454b000054520000e6
:10062c004f54000045430000482000000220000009
:10063c002d2000006e6100006a6c000065700000e7
:10064c00737a000065200000636500006e7900007d
:10065c000121000020000000526500006b6c0000be
:10066c00616d0000612e00002e2e0000004b00007a
:10067c006f6e000069650000632000007265000069
:0c068c006b6c0000616d00007900000044
:020000040000fa
:100698000000fa00f03f20001030880030382800b1
:1006a8000030880010002000603088000088230097
:1006b8001100200018010700008823001100200005
:1006c800150107000426ef003003200040308800a1
:1006d80050032000010020000f0107000426ef004e
:1006e8002003200040308800500320000100200033
:1006f800090107000426ef0080032000403088002d
:100708005003200001002000030107000426ef0029
:10071800c000200040308800500320000100200065
:10072800fd0007000426ef0060002000403088002c
:100738005003200001002000f70007006d000700ab
:1007480010c0b3000080fa00000006000400fa00a0
:10075800000f7800110798000a0037001e00780083
:10076800104078000000fb000000e000110032009b
:100778001e007800104078001e0fe80010000700e7
:10078800000000001e00900000f0a7000000ea0032
:100798000000ea004f00de00004078009e00900054
:1007a8008100e900110798000004e000ebff3a001f
:1007b80001003700000000000080fa000000060079
:1007c8000200fa00004f78001e00fb00ea0f5000fc
:1007d8000e003200ea0f500003003c00e80f500002
:1007e800150032001b003700ec0f500017003200d4
:1007f800ed0f500017003a0002c8bf00ea4f500042
:10080800360032004c0007003500370002c8bf0030
:10081800ed4f5000010032004700070000c8bf003c
:100828000004e00002003a00b00007002c00370086
:10083800a30007002a0037005300070000c2b300d6
:10084800dfff0700500007002500370029000700d8
:100858002300370001c8bf00f04f500014003a00d1
:100868000168ef0000c8bf000004e00009003a007a
:100878000426ef00000c20004030880050032000c0
:1008880001002000a400070010c0b30000e8b70072
:10089800070037000426ef000008200040308800d9
:1008a80050032000010020009b0007000068ef00b3
:1008b80010002000203088001e00fb004030880017
:1008c80050032000010020009300070001c8bf006a
:1008d8000040e80001e8b700010037000000000010
:1008e8001e41780021802000824878000080fa00ac
:1008f800000006000000fa000426ef0010002000a7
:1009080040308800a08820000100200082000700f5
:100918000426ef002000200040308800a088200036
:10092800010020007c0007000068ef000168ef006c
:100938000080fa00000006000000fa0000c8bf00ae
:100948000004e00007003a000426ef000008200039
:100958004030880050032000010020006e0007008e
:10096800060037000426ef00000c20004030880005
:100978005003200001002000670007000168ef0015
:100988000080fa00000006000200fa0001c8bf005b
:100998000004e0001c003a0000c8bf000004e000aa
:1009a80009003a000426ef00000c200040308800bf
:1009b80050032000010020005700070010c0b300ba
:1009c80000e8b700070037000426ef000008200001
:1009d8004030880050032000010020004e0007002e
:1009e8000068ef000040eb00004f7800020037007d
:1009f800100007001e4fe8001e407800ee4f500020
:100a0800fbff36000900370001c8bf000040e900bd
:100a180001e8b7000426ef000001200040308800fc
:100a280050032000010020003b0007000080fa006e
:100a3800000006000000fa000426ef004001200034
:100a480040308800500320000100200032000700d9
:100a580001c8bf000040e80001e8b70001c8bf00b6
:100a6800f04f500014003a000168ef0000c8bf00c2
:100a78000004e00009003a000426ef00000c200002
:100a880040308800500320000100200022000700a9
:100a980010c0b30000e8b700070037000426ef00d5
:100aa800000820004030880050032000010020008a
:100ab800190007000068ef000080fa000000060037
:100ac8000200fa000040eb00004f780002003700f7
:100ad800adff07001e4fe8001e407800ef4f5000a2
:100ae800fbff36000080fa00000006000200fa0052
:100af8000040eb00004f780002003700cdff0700f0
:100b08001e4fe8001e407800ef4f5000fbff3600f4
:100b18000080fa00000006000400fa00008fbe0002
:100b280005003700000000000081eb008081eb0029
:100b38001e0f41005e9749001e00be00e00f5000e6
:100b4800e08f5800f7ff3a000080fa000000060026
:100b58000200fa00004f78001e4078000004e00010
:100b6800070032000426ef00f00020004030880023
:100b78005003200001002000e7ff070006003700af
:100b88000426ef00c00020004030880050032000f9
:100b980001002000e0ff07000080fa0000000600c6
:100ba8000600fa0020479800210798002e40900080
:100bb80067406000204798000426ef002e40900010
:100bc8000080fb004300dd000060a000403088008a
:100bd8005003200001002000cfff07000000eb00b9
:100be800000f78000c00370010002000203088002b
:100bf8001e007800ae009000008040001040780091
:100c08000080fb00403088005003200001002000d5
:100c1800c1ff07001e0fe8001e007800e70f500014
:100c2800f1ff34000080fa00000006000000fa001e
:100c3800613028000040eb00d9ff0700e12f2800b1
:100c480010c0b300d6ff07000080fa0000000600bd
:100c58000000fa008efe0700f4ff070010002000d5
:100c6800820007000080fa00000006000800fa0071
:100c7800e0302800200798002e00900045fe07006d
:100c8800300798000080eb0060198800c022ef0050
:100c980018ff0700a100200020332800abfe070042
:100ca800006a280011002000890007000000eb00fe
:100cb800000f78002e0037000eff07000000eb0041
:100cc80010079800090037001e0090001e00400021
:100cd800ae0090000080400010407800b8fe070089
:100ce8001e0090000000e800100798001e00900009
:100cf800ef0f5000f4ff34009e00780070002800c9
:100d0800008060000000e00004003d000000e900f1
:100d180081ff2f00008070000000e8001100200013
:100d28000008dd002016880000f8240021012000ba
:100d38006700070010002000160007000004e0000c
:100d48000a003200ebfe0700e1002000d033280043
:100d58007efe0700c422ef0000242400f1002000da
:100d68005b0007000080fa00000006001e0fe80084
:100d78003e0090006f0050009e0f5000ceff3c00d8
:100d8800caff37000000fa00b1ff0700b7ff0700ed
:100d9800ffff37000200fa00000f78001e007800fd
:100da800e20f500013003200e20f500003003e0033
:100db800e10f50000600320029003700e30f500011
:100dc80015003200e40f50001c00320024003700e8
:100dd800a1168000000420000080600000f0a70039
:100de8000000ea000000e9004f00de000040780043
:100df8001c003700a1168000000820000080600059
:100e080000f0a7000000ea000000e9004f00de0043
:100e180000407800130037001116800000082000f9
:100e28000080600000f0a7000000ea000000e90070
:100e38004f00de00004078000a003700a11680004d
:100e4800000022000080600000f0a7000000ea0017
:100e58000000e9004f00de00004078000100370084
:100e68000040eb000080fa00000006000200fa00d3
:100e7800000f78001e007800e20f50000c003200ce
:100e8800e20f500003003e00e10f50000600320060
:100e98000d003700e30f500007003200e40f500048
:100ea8000700320008003700d2c2a8000600370049
:100eb800d2e2a80004003700c0e2a8000200370010
:100ec800d3a2a800000000000080fa00000006007d
:020000040000fa
:100ed800f03fb1000180b10006003500ee030900c3
:100ee80000000000403fb1000180b100fbff3d0061
:100ef8001000b000203fb00002003500008009005b
:080f08000000000000000600db
:020000040000fa
:100f100000080000040000000000000000000000c5
:020000040000fa
:020000040002f8
:04aff8009dfa0000be
:020000040000fa
:020000040002f8
:04affc007f3f000093
:00000001FF
