:020000040000fa
:080000000002040000000000f2
:020000040000fa
:04000800c80200002a
:020000040000fa
:04000c00c802000026
:020000040000fa
:04001000c802000022
:020000040000fa
:04001400c80200001e
:020000040000fa
:04001800c80200001a
:020000040000fa
:04001c00c802000016
:020000040000fa
:04002000c802000012
:020000040000fa
:04002400c80200000e
:020000040000fa
:04002800c80200000a
:020000040000fa
:04002c00c802000006
:020000040000fa
:04003000c802000002
:020000040000fa
:04003400c8020000fe
:020000040000fa
:04003800c8020000fa
:020000040000fa
:04003c00c8020000f6
:020000040000fa
:04004000c8020000f2
:020000040000fa
:04004400c8020000ee
:020000040000fa
:04004800c8020000ea
:020000040000fa
:04004c00c8020000e6
:020000040000fa
:04005000c8020000e2
:020000040000fa
:04005400c8020000de
:020000040000fa
:04005800c8020000da
:020000040000fa
:04005c00c8020000d6
:020000040000fa
:04006000c8020000d2
:020000040000fa
:04006400c8020000ce
:020000040000fa
:04006800c8020000ca
:020000040000fa
:04006c00c8020000c6
:020000040000fa
:04007000c8020000c2
:020000040000fa
:04007400c8020000be
:020000040000fa
:04007800c8020000ba
:020000040000fa
:04007c00c8020000b6
:020000040000fa
:04008000c8020000b2
:020000040000fa
:04008400c8020000ae
:020000040000fa
:04008800c8020000aa
:020000040000fa
:04008c00c8020000a6
:020000040000fa
:04009000c8020000a2
:020000040000fa
:04009400c80200009e
:020000040000fa
:04009800c80200009a
:020000040000fa
:04009c00c802000096
:020000040000fa
:0400a000c802000092
:020000040000fa
:0400a400c80200008e
:020000040000fa
:0400a800c80200008a
:020000040000fa
:0400ac00c802000086
:020000040000fa
:0400b000c802000082
:020000040000fa
:0400b400c80200007e
:020000040000fa
:0400b800c80200007a
:020000040000fa
:0400bc00c802000076
:020000040000fa
:0400c000c802000072
:020000040000fa
:0400c400c80200006e
:020000040000fa
:0400c800c80200006a
:020000040000fa
:0400cc00c802000066
:020000040000fa
:0400d000c802000062
:020000040000fa
:0400d400c80200005e
:020000040000fa
:0400d800c80200005a
:020000040000fa
:0400dc00c802000056
:020000040000fa
:0400e000c802000052
:020000040000fa
:0400e400c80200004e
:020000040000fa
:0400e800c80200004a
:020000040000fa
:0400ec00c802000046
:020000040000fa
:0400f000c802000042
:020000040000fa
:0400f400c80200003e
:020000040000fa
:0400f800c80200003a
:020000040000fa
:0400fc00c802000036
:020000040000fa
:04010000c802000031
:020000040000fa
:04010400c80200002d
:020000040000fa
:04010800c802000029
:020000040000fa
:04010c00c802000025
:020000040000fa
:04011000c802000021
:020000040000fa
:04011400c80200001d
:020000040000fa
:04011800c802000019
:020000040000fa
:04011c00c802000015
:020000040000fa
:04012000c802000011
:020000040000fa
:04012400c80200000d
:020000040000fa
:04012800c802000009
:020000040000fa
:04012c00c802000005
:020000040000fa
:04013000c802000001
:020000040000fa
:04013400c8020000fd
:020000040000fa
:04020800c802000028
:020000040000fa
:04020c00c802000024
:020000040000fa
:04021000c802000020
:020000040000fa
:04021400c80200001c
:020000040000fa
:04021800c802000018
:020000040000fa
:04021c00c802000014
:020000040000fa
:04022000c802000010
:020000040000fa
:04022400c80200000c
:020000040000fa
:04022800c802000008
:020000040000fa
:04022c00c802000004
:020000040000fa
:04023000c802000000
:020000040000fa
:04023400c8020000fc
:020000040000fa
:04023800c8020000f8
:020000040000fa
:04023c00c8020000f4
:020000040000fa
:04024000c8020000f0
:020000040000fa
:04024400c8020000ec
:020000040000fa
:04024800c8020000e8
:020000040000fa
:04024c00c8020000e4
:020000040000fa
:04025000c8020000e0
:020000040000fa
:04025400c8020000dc
:020000040000fa
:04025800c8020000d8
:020000040000fa
:04025c00c8020000d4
:020000040000fa
:04026000c8020000d0
:020000040000fa
:04026400c8020000cc
:020000040000fa
:04026800c8020000c8
:020000040000fa
:04026c00c8020000c4
:020000040000fa
:04027000c8020000c0
:020000040000fa
:04027400c8020000bc
:020000040000fa
:04027800c8020000b8
:020000040000fa
:04027c00c8020000b4
:020000040000fa
:04028000c8020000b0
:020000040000fa
:04028400c8020000ac
:020000040000fa
:04028800c8020000a8
:020000040000fa
:04028c00c8020000a4
:020000040000fa
:04029000c8020000a0
:020000040000fa
:04029400c80200009c
:020000040000fa
:04029800c802000098
:020000040000fa
:04029c00c802000094
:020000040000fa
:0402a000c802000090
:020000040000fa
:0402a400c80200008c
:020000040000fa
:0402a800c802000088
:020000040000fa
:0402ac00c802000084
:020000040000fa
:0402b000c802000080
:020000040000fa
:0402b400c80200007c
:020000040000fa
:0402b800c802000078
:020000040000fa
:0402bc00c802000074
:020000040000fa
:0402c000c802000070
:020000040000fa
:0402c400c80200006c
:020000040000fa
:0402c800c802000068
:020000040000fa
:0402cc00c802000064
:020000040000fa
:0402d000c802000060
:020000040000fa
:0402d400c80200005c
:020000040000fa
:0402d800c802000058
:020000040000fa
:0402dc00c802000054
:020000040000fa
:0402e000c802000050
:020000040000fa
:0402e400c80200004c
:020000040000fa
:0402e800c802000048
:020000040000fa
:0402ec00c802000044
:020000040000fa
:0402f000c802000040
:020000040000fa
:0402f400c80200003c
:020000040000fa
:0402f800c802000038
:020000040000fa
:0402fc00c802000034
:020000040000fa
:04030000c80200002f
:020000040000fa
:04030400c80200002b
:020000040000fa
:04030800c802000027
:020000040000fa
:04030c00c802000023
:020000040000fa
:04031000c80200001f
:020000040000fa
:04031400c80200001b
:020000040000fa
:04031800c802000017
:020000040000fa
:04031c00c802000013
:020000040000fa
:04032000c80200000f
:020000040000fa
:04032400c80200000b
:020000040000fa
:04032800c802000007
:020000040000fa
:04032c00c802000003
:020000040000fa
:04033000c8020000ff
:020000040000fa
:04033400c8020000fb
:020000040000fa
:100400000f8020000e7f22000e01880000000000f7
:10041000000020000000e000020032000001200087
:1004200020028800140007005b0007000000e000c5
:1004300003003a0000002000010020000200370005
:100440000000200001002000810f70000100320038
:1004500014000700000020000000e000020032004d
:1004600000000200000000005a0502000000000029
:100470000040da000000fe004440a9000000200017
:100480000000e0000300320000002000a00188000e
:100490004440a800000006008a1f78008b1f7800e7
:1004a0000000060091018800800478000000eb0045
:1004b0001a003700e284440032a0b4009905ba0063
:1004c000e284440032a0b4009906ba00e2844400f9
:1004d00032a0b4000006eb00476fde00fd07b2005b
:1004e000636ce10003003a00ebff07000000eb0043
:1004f0000a003700606ce10004003a00005deb0088
:100500008b05e900fdff3e00040037006168e10053
:10051000010032000086eb000b00070019c7ba008b
:100520001905ba000e04e00003003a000a00e000da
:10053000e0ff3a0000000600fe07b2009e018800be
:100540008a047800f5ff3700395dba008b05e900b1
:100550000c003200295dba008b05e900080032006a
:100560000c00e00003003a00e284440032a0b40032
:10057000f5ff370019ddba008b05e900faff3a00f4
:100580008904e800e184440032a0b40000000600c1
:0c0590000040da000000fe000000050042
:020000040000fa
:10059c000200fa00000f78001e0078000080d100e5
:1005ac001e0068000080fa00000006000200fa003d
:1005bc00000f78001e017800706626000090b900cc
:1005cc00c288de004f90de00008050004402dd0047
:1005dc009e007800706626000089b9004299de0002
:1005ec004f88de00000051006a01b900020078005b
:1005fc0000805000040070000080fa00000006002b
:10060c000400fa00204798002e4090000080fb0068
:10061c000000d100804078002e40900000c068009f
:10062c00804078002e4090000080fb004200de00ed
:10063c000040780080c068002e4090000080fb00d5
:10064c004500de000040780080c068002e4090001d
:10065c000080fb004600de000040780000c068000f
:10066c00614f60002e4090000080fb000000d10024
:10067c0000407800804078001e80fb004500dd00c3
:10068c000040780000c070000080fa0000000600f6
:10069c000200fa000000eb00000f78000e0037009b
:1006ac001e007800201688001e0fe800002424008d
:1006bc00f10020001202070010002000c101070009
:1006cc000004e00008003a0040002000bd010700d3
:1006dc000004e00004003a00f00f20009e007800b7
:1006ec00808f5000eeff34000080fa0000000600fe
:1006fc000200fa00f00f2000000f78000e00370007
:10070c001e007800201688001e0fe900002424002b
:10071c00f1002000fa01070010002000a9010700d9
:10072c000004e00007003a0040002000a50107008b
:10073c000004e00003003a001e0078000000e00016
:10074c00efff3d000080fa00000006000200fa00f6
:10075c000000eb00000f78000f0037001e0078003f
:10076c008bff07002016880000242400f1002000d5
:10077c00e301070010002000920107000004e000d4
:10078c0009003a00400020008e0107000004e00040
:10079c0005003a001e0fe800f00f20009e007800c4
:1007ac00808f5000edff34000080fa00000006003e
:1007bc000200fa00f00f2000000f78000f00370045
:1007cc001e00780072ff0700201688000024240009
:1007dc00f1002000ca010700100020007901070079
:1007ec000004e00008003a004000200075010700fa
:1007fc000004e00004003a001e0fe9001e0078001f
:10080c000000e000eeff3d000080fa000000060052
:10081c000200fa000000eb00000f78000f00370018
:10082c001e00780061ff07002016880000242400b9
:10083c00f1002000b2010700100020006101070048
:10084c000004e00009003a00400020005d010700b0
:10085c000004e00005003a001e0fe80030062000fe
:10086c009e007800808f5000edff34000080fa006d
:10087c00000006000200fa0030062000000f78008d
:10088c000f0037001e00780048ff07002016880074
:10089c0000242400f1002000990107001000200022
:1008ac00480107000004e00008003a004000200066
:1008bc00440107000004e00004003a001e0fe900a8
:1008cc001e0078000000e000eeff3d000080fa0002
:1008dc00000006000400fa000000eb00000f780096
:1008ec0010002000100798000100370000000000e5
:1008fc00710020001e0078000008dd002016880022
:10090c0000242400f10020007d0107001e00780067
:10091c00e50f500006003a001e009000e10f500059
:10092c0003003a000080eb00100798000800370025
:10093c001e0078000000e00005003a001e00900048
:10094c00e10f400002003a00100020001007980050
:10095c001e0090001e0f400010002000190107001f
:10096c000004e00004003a004000200015010700dc
:10097c000004e000ddff32000080fa0000000600f9
:10098c000800fa000000eb00000f78000000eb00fc
:10099c0010079800250037001e009000670010001b
:1009ac00110020000008dd00300798000000eb006b
:1009bc0020079800090037003e0090001e007000d0
:1009cc002016880000242400f10020004c010700b0
:1009dc002e0090000000e80020079800ae00900068
:1009ec001e009000808f5000f3ff34003e009000fa
:1009fc001e0f700000482800e10120004001070094
:100a0c0010002000ef0007000004e0000a003a008c
:100a1c0040002000eb0007000004e00006003a0054
:100a2c001e0090000000e800100798001e009000c7
:100a3c00e70f5000d8ff34000080fa0000000600d9
:100a4c000200fa0030c7b300004f780000242400e5
:100a5c00f10020002a01070001003700000000000f
:100a6c001e407800e6fe0700004f78001e80fb0059
:100a7c002016880000242400f1002000200107002b
:100a8c0010002000cf0007000004e00004003a0032
:100a9c0040002000cb0007000004e000efff320014
:100aac000080fa00000006000200fa000080eb0053
:100abc0060198800c022ef000000eb00000f7800e6
:100acc0010002000bf0007000004e0000b00320003
:100adc009e00e80090002000000178001100090041
:100aec008200d8008000fd00000f7800004828002c
:100afc00e1012000020107000e0037004000200039
:100b0c00b00007000004e0000a0032001e0078006c
:100b1c000000e000020032001e00e9000100370076
:100b2c0080002000000f780000482800e101200020
:100b3c00f30007001e007800e40f50001f00320085
:100b4c00e40f50000c003c00e10f50001500320087
:100b5c00e10f500003003c000000e0000f003200e9
:100b6c00d7ff3700e20f500010003200e30f5000a7
:100b7c0010003200d2ff3700e60f50001300320095
:100b8c00e60f50000f003500e70f50001100320047
:100b9c00e80f500011003200c9ff3700bcfe0700ff
:100bac0010003700d2fe07000e003700e7fe0700ea
:100bbc000c003700fefe07000a00370014ff070088
:100bcc00080037002bff07000600370041ff070025
:100bdc00040037006aff07000200370098ff070087
:100bec0000000000b6ff37000400fa001007980060
:100bfc001e009000e40f500004003200e50f50007e
:100c0c000400320000c0eb001000370000000000b0
:100c1c0001003700000000001e0090000d000700ce
:100c2c00d1cc2c000100b8004308de00004f780046
:100c3c0040c6b3009e40780080cf500002003600c2
:100c4c0040c6b300004f78001e4078000080fa00c8
:100c5c00000006000400fa00100798001e00900027
:100c6c00e40f500004003200e50f50000400320085
:100c7c000080eb001f00370000000000010037006f
:100c8c00000000009e009000411988002023a8005d
:100c9c000000eb00000f780002003700000000009d
:100cac001e0fe800703e20009e007800808f5000e0
:100cbc00faff36002023a9000000eb00000f78009b
:100ccc0002003700000000001e0fe800703e2000fc
:100cdc009e007800808f5000faff36000000000064
:100cec0000198000610060000000e000fcff320091
:100cfc00001880000080fa00000006000200fa00d4
:100d0c00000f78001e007800e40f50000500320040
:100d1c00e50f500006003a002ca3a90010c0b30048
:100d2c00040037002c83a90010c0b3000100370069
:100d3c000040eb000080fa00000006000200fa0000
:100d4c00000f78001e0078000000e0001a003a0046
:100d5c0011198000f0ff210000806000101988003c
:100d6c0000c0eb0024e3b70001198000f0f12f0064
:100d7c00008060000019880021198000f00f2e00ff
:100d8c000080600000c0a0002019880001198000bc
:100d9c00f0cf2f000080600000198800111980002e
:100dac0030fc2f00008060001019880021e3a8009f
:100dbc0010c0b300010037000040eb000080fa00c7
:100dcc00000006000200fa00000f78001e007800f8
:100ddc00e20f500013003200e20f500003003e00ff
:100dec00e10f50000600320029003700e30f5000dd
:100dfc0015003200e40f50001c00320024003700b4
:100e0c00a1168000000420000080600000f0a70004
:100e1c000000ea000000e9004f00de00004078000e
:100e2c001c003700a1168000000820000080600024
:100e3c0000f0a7000000ea000000e9004f00de000f
:100e4c0000407800130037001116800000082000c5
:100e5c000080600000f0a7000000ea000000e9003c
:100e6c004f00de00004078000a003700a116800019
:100e7c00000022000080600000f0a7000000ea00e3
:100e8c000000e9004f00de00004078000100370050
:100e9c000040eb000080fa00000006000200fa009f
:100eac00000f78001e007800e20f50000c0032009a
:100ebc00e20f500003003e00e10f5000060032002c
:100ecc000d003700e30f500007003200e40f500014
:100edc000700320008003700d2c2a8000600370015
:100eec00d2e2a80004003700c0e2a80002003700dc
:100efc00d3a2a800000000000080fa000000060049
:020000040000fa
:100f0c00f03fb1000180b10006003500ee0309008e
:100f1c0000000000403fb1000180b100fbff3d002c
:100f2c001000b000203fb000020035000080090026
:080f3c000000000000000600a7
:020000040000fa
:020000040002f8
:04aff8009dfa0000be
:020000040000fa
:020000040002f8
:04affc00ff3f000013
:00000001FF
